:040000004EEF0FF0C0
:1000080000C01FF001C01EF002C01DF003C01CF0AC
:1000180004C01BF005C01AF006C019F008C018F09B
:1000280009C017F00AC016F00BC015F0E1CF26F092
:10003800E2CF27F0E9CF24F0EACF25F0F5CF23F07F
:10004800F8CF20F0F7CF21F0F6CF22F0A5EC0EF094
:1000580023C0F5FF20C0F8FF21C0F7FF22C0F6FF3C
:100068001FC000F01EC001F01DC002F01CC003F04C
:100078001BC004F01AC005F019C006F018C008F03B
:1000880017C009F016C00AF015C00BF024C0E9FF2C
:0E00980025C0EAFF26C0E1FF27C0E2FF1100ED
:1000A600B4C073F0B5C074F0B6C077F0B7C078F0DE
:1000B600800E0001B811006E008000C076F01200BC
:1000C600000E056E040E066EB4C003F0000E046E3C
:1000D600033604360390033604360390B5C000F0A9
:1000E600000E016E003601360090005003260150C6
:1000F600042203C001F004C002F00136019002366A
:1001060001360190023601C003F002C004F0043249
:100116000332049E04BC048E04320332049E04BCE3
:10012600048E03C000F004C001F0003600900136D2
:10013600003600900136055000260650012200C008
:1001460005F001C006F000C0E1FF01C0E2FFE69E37
:100156000001B551000A12E1B4C000F0000E016EB4
:10016600003600900136420E0024E16E000E01209A
:10017600E26E05C0E6FF06C0E6FF11D0B4C000F08F
:10018600000E016E003600900136380E0024E16E36
:10019600000E0120E26E05C0E6FF06C0E6FF05C0C0
:1001A600E1FF06C0E2FFE69C040E0524E16E000EA8
:0801B6000620E26EE68C120047
:0E01BE00800E0001B411006E00C076F0120039
:1001CC00B4C073F0B5C074F0B6C075F0B7C077F0BA
:1001DC00B8C078F0800E0001B911006E00C076F046
:0201EC001200FF
:1001EE0020C401F01F0E01160150010A01E08BD050
:1001FE0004012451000A01E086D02151060A38E19B
:10020E002DD000017151010A12E17D0EB46F1F0E47
:10021E00B56F000EB66F120EB427000EB523B623BF
:10022E00090EB76F000EB86F400EB96FC8DF20D041
:10023E0000017151010A0DE13E0EB46F1F0EB56F34
:10024E00000EB66F3F0EB76F000EB86F400EB96F4F
:10025E00B6DF0ED00001B46BABDF0AD00401235120
:10026E00210ACFE02351220AE3E02351230AF2E0D0
:10027E0020C401F0600E0116050E006E005004E061
:10028E000132019EFF0FFBD70150010A01E03BD066
:10029E0027D039D038D0720E0001B46F000EB56F72
:1002AE00010EB66F000EB76F400EB86FF5DE2BD095
:1002BE000001B46B7DDF23C472F025D00001680EFF
:1002CE00B46F000EB56F010EB66F000EB76FB86B40
:1002DE00E3DE19D00001B46B6BDF22C468F013D0DB
:1002EE0004012151010AD5E02151090AD3E021511F
:1002FE00020AD1E021510A0ADBE02151030ADEE0B5
:08030E0021510B0AE7E0120087
:100316000001B051000A12E0AFC000F0000E016EFD
:10032600003600900136380E0024E96E000E0120DA
:10033600EA6EEECF04F0EECF05F011D0AFC000F0BC
:10034600000E016E003600900136420E0024E96E62
:10035600000E0120EA6EEECF04F0EECF05F0020E9D
:100366000424E16E000E0520E26EB1C0E6FFB2C0C5
:10037600E6FF010E0424E16E000E0520E26EB3C016
:10038600E6FF04C0E9FF05C0EAFFEECF00F004C0B7
:10039600E1FF05C0E2FF400E0014E66E04C0E9FF6F
:1003A60005C0EAFFEECF00F004C0E1FF05C0E2FFA2
:1003B600880E0010E66EB051000A1BE0AFC000F0D8
:1003C600000E016E003600900136380E0024026ED3
:1003D600000E0120036E02C0E9FF03C0EAFF040E0F
:1003E600EE18006E02C0E1FF03C0E2FF00C0E6FFA8
:1003F6001AD0AFC000F0000E016E00360090013634
:10040600420E0024026E000E0120036E02C0E9FFB8
:1004160003C0EAFF040EEE18006E02C0E1FF03C03F
:10042600E2FF00C0E6FF04C000F005C001F01200C4
:10043600700EE16E0F0EE26E0001AF51E126D8B0EC
:10044600E22AB0C0E6FFB0A504D0AFC0B4F0B56BE9
:1004560037DEB0A305D0AFC0B4F0010EB56F30DE05
:02046600120082
:1004680000016E5314E0010EAF6F1E0EB06FDFDF98
:10047800010EAF6FB06B69C0B1F06AC0B2F0400E48
:10048800B36F45DF00C06FF001C070F013D0010EEC
:10049800AF6F1E0EB06FCBDF010EAF6FB06B69C0D0
:1004A800B1F06AC0B2F0400EB36F31DF00C06FF038
:0604B80001C070F012000B
:0A04BE0000016E5301E094DE12000D
:1004C8000B6A0A6A096A00500402F4CF09F0F3CFF4
:1004D80008F001500502F4CF0BF0F3CF0AF00050FA
:1004E8000502F3500926F4500A22E86A0B2201504B
:1004F8000402F3500926F4500A22E86A0B2208C0C5
:1005080000F009C001F00AC002F00BC003F01200AD
:10051800A9C002F0AAC003F0ACC000F0ADC001F061
:10052800010E0001AC5F000EAD5B0050011009E048
:1005380002C0E1FF03C0E2FFABC0E6FF024A032AA4
:04054800EBD71200DB
:10054C000CD08CDF3CD03BD0B4DF39D038D037D096
:10055C0036D035D0000033D032D0000E0001AA19AD
:10056C0002E1010EA919EDE0000EAA1902E1020E3A
:10057C00A919E9E0000EAA1902E1030EA919E4E099
:10058C00AA51000A02E1730EA919E0E0AA51000A6F
:10059C0002E1750EA919DBE0AA51000A02E1740E02
:1005AC00A919D6E0AA513F0A02E1FF0EA919D1E020
:1005BC00AA51000A02E1720EA919CCE0CDD7010EA6
:0405CC00006E1200AB
:1005D000000E0001785D02E1080E775D10E277C041
:1005E00003F078C004F06051000A03E1010E606F6F
:1005F00005D06051010A02E1020E606F04D0080EBE
:10060000036E000E046E38C0E1FF39C0E2FFE692CF
:1006100038C0E1FF39C0E2FFE69038C0E9FF39C0D9
:10062000EAFFEECF00F038C0E1FF39C0E2FF04502E
:100630000010E66E010E3824E16E000E3920E26EE5
:1006400003C0E6FF0350775D006E04507859016ED9
:1006500000C077F001C078F0280E666F040E676F57
:1006600076B12FD0035004102BE073C0F6FF74C096
:10067000F7FF75C0F8FF0900F5CF00F066C0E1FF95
:1006800067C0E2FF00C0E6FF664B672B010E7325D3
:10069000006E000E7421016E000E7521026E00C006
:1006A00073F001C074F002C075F0010E035C006EBF
:1006B000000E0458016E00C003F001C004F0D2D750
:1006C00024D00350041021E073C0E9FF74C0EAFF96
:1006D00066C0E1FF67C0E2FFEECFE6FF664B672B27
:1006E000010E7325006E000E7421016E00C073F0C0
:1006F00001C074F0010E035C006E000E0458016E20
:0C07000000C003F001C004F0DCD71200C0
:10070C0004012051800AD8A478D0C00E0001766F65
:10071C0069D00001DC0E006E1F0E016E000E026E21
:10072C0000C073F001C074F002C075F0120E776F48
:10073C00000E786F62D00001030E006E000E016E89
:10074C0022C404F0000E056EB9DE4B0E0024E96ED7
:10075C00000E0120EA6EEECF73F0EECF74F0EECF08
:10076C0075F0020E7325F66E000E7421F76E000EF6
:10077C007521F86E0900F5CF00F00900F5CF01F0F6
:10078C0000C077F001C078F038D00401225100018C
:10079C006D5D23E3030E006E000E016E22C404F0A7
:1007AC00000E056E8BDE4E0E0024E96E000E01204D
:1007BC00EA6EEECF73F0EECF74F0EECF75F073C03F
:1007CC00F6FF74C0F7FF75C0F8FF0900F5CF00F015
:1007DC0000C077F0000E786F01D0766B0ED0000160
:1007EC00766B0BD004012351010A93E02351020ACA
:0C07FC00A2E02351030AC9E0F2D712006A
:100808000001768F710EA96F0F0EAA6FAB6B010EE8
:10081800AC6F000EAD6F7CDE640EA96F000EAA6F80
:10082800AB6B010EAC6F000EAD6F72DE22C471F0BF
:100838007151000A03E1100E466E0FD0200E466E6D
:10084800010EA96F000EAA6F710EAB6F000EAC6F90
:0C085800010EAD6F000EAE6F75DE1200D9
:100864000401286B296B4AD00001768F040128818A
:1008740000016551010A02E10401288354D00001FA
:10088400768F51D00001768F040124BF16D024C482
:1008940003F00F0E031603C000F0000E016E0036C5
:1008A40000900136420E0024E96E000E0120EA6E2B
:1008B400EECF04F0EECF05F015D024C403F00F0EF4
:1008C400031603C000F0000E016E003600900136DE
:1008D400380E0024E96E000E0120EA6EEECF04F01B
:1008E400EECF05F004C0E9FF05C0EAFFEECF01F04A
:1008F40001A403D00401010E286F15D020C401F017
:100904001F0E01160150000AAFE020C401F01F0EB3
:1009140001160150010AB3E020C401F01F0E0116B4
:100924000150020AAFE0000176AF07D0280E736FC2
:0C093400040E746F7681020E776F1200C3
:1009400004012251010A13E120C401F01F0E011617
:100950000150000A0CE10001768F04012151030AC5
:1009600004E1010E0001656F02D00001656B040116
:100970002251000AD8A48DD020C401F01F0E011608
:100980000150020AD8A485D024C401F00F0E01162C
:100990000150000AD8B47DD00001768F040124BF35
:1009A00016D024C403F00F0E031603C000F0000E8F
:1009B000016E003600900136420E0024E96E000EF2
:1009C0000120EA6EEECF04F0EECF05F015D024C47E
:1009D00003F00F0E031603C000F0000E016E003688
:1009E00000900136380E0024E96E000E0120EA6EF8
:1009F000EECF04F0EECF05F02151030A07E104C069
:100A0000E1FF05C0E2FF840EE66E43D024C400F08F
:100A10000F0E0016700E026E0F0E036E00500226AF
:100A2000D8B0032A02C0E9FF03C0EAFFFE0EEE14AD
:100A3000006EEECF01F0FF0E011602C0E1FF03C011
:100A4000E2FF00C0E6FF01C0E6FF24AF11D004C002
:100A5000E1FF05C0E2FFE66A040E0418006E00C064
:100A600004F004C0E1FF05C0E2FF400EE66E11D0C5
:100A700004C0E1FF05C0E2FF880EE66E040E041814
:100A8000006E00C004F004C0E1FF05C0E2FFC80E24
:040A9000E66E1200FC
:100A940020C401F0600E0116050E006E005004E043
:100AA4000132019EFF0FFBD70150000A01E068D01C
:100AB40044D00001768F080E466E62D025DE60D0E9
:100AC400A1DE5ED0710E0001736F000E746F76812B
:100AD400010E776F768F54D0C3DE52D02FDF50D003
:100AE400640E006E000E016E040124510026D8B07D
:100AF400012A00C073F001C074F000017681010E78
:100B0400776F768F3DD00001768F640EE16E000E14
:100B1400E26E04012451E126D8B0E22A22C4E6FFA1
:100B24002FD0020E0001A96F000EAA6FAB6BAC6B45
:100B3400AD6BAE6B09DD24D023D004012151050A2D
:100B4400B8E02151060ABAE02151090AB9E021515D
:100B5400080AB8E02151000ABFE02151010ABEE0B1
:100B64002151030ABBE021510A0ABAE021510B0AC0
:100B7400CAE02151070AD5E021510C0ADDE0DCD797
:020B840012005D
:100B8600010E5E24E96E000E5F20EA6EEECF00F0E5
:100B960000C002F0000E00017D5D02E102507C5DA6
:100BA60003E27CC002F00AD002507C5D006E000EAB
:100BB6007D59016E00C07CF001C07DF0036A0250D1
:100BC600035C1CE2280EE96E040EEA6E0350E92669
:100BD600D8B0EA2AEECF00F079C0E1FF7AC0E2FF92
:100BE60000C0E6FF010E7925006E000E7A21016E27
:100BF60000C079F001C07AF0032AE1D7000E006E3A
:100C06007D51005C02E17C51000828E2010E61255D
:100C1600E16E000E6221E26E080EE66E020E61259E
:100C2600E16E000E6221E26E280EE66E040EE66E9E
:100C36005EC0E9FF5FC0EAFFEECF00F000BC07D060
:100C460061C0E1FF62C0E2FFC80EE66E06D061C079
:100C5600E1FF62C0E2FF880EE66E19D0010E612543
:100C6600E16E000E6221E26E080EE66E020E61254E
:100C7600E16E000E6221E26E200EE66E040EE66E56
:100C860061C0E1FF62C0E2FF840EE66E7B9F120048
:100C96006D98000176BF49D07BAF28D0020E5C6EFE
:100CA600010E3824E16E000E3920E26EE66A38C085
:100CB600E1FF39C0E2FFC80EE66E010E6125E16E66
:100CC600000E6221E26E080EE66E020E6125E16EEE
:100CD600000E6221E26E280EE66E040EE66E61C01C
:100CE600E1FF62C0E2FFC80EE66E1ED0010E61256E
:100CF600E16E000E6221E26E080EE66E020E6125BE
:100D0600E16E000E6221E26E200EE66E040EE66EC5
:100D160061C0E1FF62C0E2FF8C0EE66E38C0E1FF03
:100D260039C0E2FF840EE66E82D07BBF80D004011C
:100D360020AF55D0000178510401275D04E1000180
:100D460077510401265D04E226C477F027C478F0C3
:100D56003CDC010E5C6E010E6125E16E000E622127
:100D6600E26E080EE66E020E6125E16E000E62214D
:100D7600E26E200EE66E040EE66E61C0E1FF62C012
:100D8600E2FF800EE66E5D6A010E5E24E16E000EE5
:100D96005F20E26E080EE66E020E5E24E16E000E25
:100DA6005F20E26E200EE66E040EE66E5EC0E1FF88
:100DB6005FC0E2FF840EE66E010E5D6E020E382401
:100DC600E16E000E3920E26E280EE66E040EE66E27
:100DD60038C0E1FF39C0E2FFC80EE66E28D0000138
:100DE600020E5C6E010E3824E16E000E3920E26EB2
:100DF600E66A38C0E1FF39C0E2FFC80EE66E010EB2
:100E06006125E16E000E6221E26E080EE66E020EAC
:100E16006125E16E000E6221E26E280EE66E040E7A
:100E2600E66E61C0E1FF62C0E2FFC80EE66E120028
:100E36005C6A38C0E1FF39C0E2FFE66A040E381882
:100E4600E16E39C0E2FF000EE21AE66A00017BAFEE
:060E560001D07B9F120099
:100E5C0038C0E9FF39C0EAFFEECF00F000AE05D094
:100E6C0038C0E1FF39C0E2FFE66A0001606B5C6AE2
:100E7C00776B786B766B08DE030E0001A96F000EA2
:100E8C00AA6FAB6BAC6BAD6BAE6BA6EC02F0FDDE80
:020E9C00120042
:100E9E00DC0E006E1F0E016E000E026E0E0E002492
:100EAE00F66E000E0120F76E000E0220F86E09009D
:100EBE00F5CF03F003C004F00F0E0024F66E000E03
:100ECE000120F76E000E0220F86E0900F5CF01F03A
:100EDE000150035C12E2DC0E006E1F0E016E000E5E
:100EEE00026E0F0E0024F66E000E0120F76E000E3D
:100EFE000220F86E0900F5CF04F0DC0E006E1F0E16
:100F0E00016E000E026E100E0024F66E000E012011
:100F1E00F76E000E0220F86E0900F5CF01F00150B9
:100F2E00045C12E2DC0E006E1F0E016E000E026EED
:100F3E00100E0024F66E000E0120F76E000E022039
:0E0F4E00F86E0900F5CF04F004C000F01200A8
:100F5C005C50020A02E111DE1ED067DF5D50000A10
:100F6C0019E1010E6125E16E000E6221E26E080EA0
:100F7C00E66E020E6125E16E000E6221E26E200E1D
:100F8C00E66E040EE66E61C0E1FF62C0E2FF8C0EFD
:080F9C00E66E01D05D6A12004F
:100FA40038C0E9FF39C0EAFFEECF00F0000E00BC04
:100FB400010E0001A86F040E3818006E00C038F04E
:100FC4004650080A0AE122C46EFF6E50000803E28C
:100FD400100E466E02D0040E466E5C50010A27E1E4
:100FE400020E3824E16E000E3920E26E280EE66E01
:100FF400040EE66EE8EC02F06051020A07E138C024
:10100400E1FF39C0E2FF840EE66E10D0A851000A59
:1010140007E138C0E1FF39C0E2FFC80EE66E06D032
:1010240038C0E1FF39C0E2FF880EE66E01D001DF6F
:021034001200A8
:10103600A0C002F0A1C003F0A3C000F0A4C001F05C
:10104600010E0001A35F000EA45B0050011009E031
:1010560002C0E1FF03C0E2FFA2C0E6FF024A032A84
:04106600EBD71200B2
:10106A007D0E4B6E1F0E4C6E000E4D6EEE0E4E6ECA
:10107A001F0E4F6E000E506EC60E516E1F0E526E30
:10108A00000E536EA60E546E1F0E556E000E566E4F
:02109A00120042
:10109C000001A36BA46BA56B020EA025F66E000ECF
:1010AC00A121F76E000EA221F86E0900F5CF05F014
:1010BC00030EA025F66E000EA121F76E000EA221E4
:1010CC00F86E0900F5CF00F000C003F0000E046EBE
:1010DC0003C001F0006A05500024066E000E0120CA
:1010EC00076EA0C008F0A1C009F0A2C00AF0010E62
:1010FC000824F66E000E0920F76E000E0A20F86E1A
:10110C000900F5CF01F00150020A1BE1060E08247C
:10111C00F66E000E0920F76E000E0A20F86E09001C
:10112C00F5CF01F00150A35D0CE2060E0824F66E1B
:10113C00000E0920F76E000E0A20F86E0900F5CF9C
:10114C00A3F0010E0824F66E000E0920F76E000EB7
:10115C000A20F86E0900F5CF01F00150040A1BE1DA
:10116C00080E0824F66E000E0920F76E000E0A20F9
:10117C00F86E0900F5CF01F00150A35D0CE2080EEA
:10118C000824F66E000E0920F76E000E0A20F86E89
:10119C000900F5CFA3F008C0F6FF09C0F7FF0AC09D
:1011AC00F8FF0900F5CF00F00050A425016E000EE9
:1011BC00A521026E01C0A4F002C0A5F00750025C8C
:1011CC0002E10650015C01E30FD008C0F6FF09C034
:1011DC00F7FF0AC0F8FF0900F5CF00F00050082611
:0E11EC00000E09220A2283D7A3C000F01200D1
:1011FA000450085E0550D8A0053C095E0650D8A0E8
:10120A00063C0A5E0750D8A0073C0B5E0336070E61
:10121A000C6E0334083609360A360B36045003A01E
:10122A000ED0085E0550D8A0053C095E0650D8A02D
:10123A00063C0A5E0750D8A0073C0B5E0DD0082674
:10124A000550D8B0053C09260650D8B0063C0A26F7
:10125A000750D8B0073C0B2603360C2EDAD70234D7
:10126A00083609360A360B36045003A00ED0085E3B
:10127A000550D8A0053C095E0650D8A0063C0A5E77
:10128A000750D8A0073C0B5E0DD008260550D8B0F1
:10129A00053C09260650D8B0063C0A260750D8B0A5
:1012AA00073C0B260236070E0C6E02340836093646
:1012BA000A360B36045002A00ED0085E0550D8A09C
:1012CA00053C095E0650D8A0063C0A5E0750D8A025
:1012DA00073C0B5E0DD008260550D8B0053C092600
:1012EA000650D8B0063C0A260750D8B0073C0B2651
:1012FA0002360C2EDAD70134083609360A360B368E
:10130A00045002A00ED0085E0550D8A0053C095E24
:10131A000650D8A0063C0A5E0750D8A0073C0B5ED0
:10132A000DD008260550D8B0053C09260650D8B07D
:10133A00063C0A260750D8B0073C0B260136070E92
:10134A000C6E0134083609360A360B36045001A0F1
:10135A000ED0085E0550D8A0053C095E0650D8A0FC
:10136A00063C0A5E0750D8A0073C0B5E0DD0082643
:10137A000550D8B0053C09260650D8B0063C0A26C6
:10138A000750D8B0073C0B2601360C2EDAD70034AA
:10139A00083609360A360B36045001A00ED0085E0C
:1013AA000550D8A0053C095E0650D8A0063C0A5E46
:1013BA000750D8A0073C0B5E0DD008260550D8B0C0
:1013CA00053C09260650D8B0063C0A260750D8B074
:1013DA00073C0B260036070E0C6E00340836093619
:1013EA000A360B36045000A00ED0085E0550D8A06D
:1013FA00053C095E0650D8A0063C0A5E0750D8A0F4
:10140A00073C0B5E0DD008260550D8B0053C0926CE
:10141A000650D8B0063C0A260750D8B0073C0B261F
:10142A0000360C2EDAD700B00ED00450082605502C
:10143A00D8B0053C09260650D8B0063C0A26075003
:08144A00D8B0073C0B2612008C
:0E145200160E6F6E9F0E6B6E7B0E696E120093
:101460000001A151000A12E0A0C000F0000E016EC0
:10147000003600900136380E0024E96E000E01207F
:10148000EA6EEECF04F0EECF05F011D0A0C000F070
:10149000000E016E003600900136420E0024E96E07
:1014A000000E0120EA6EEECF04F0EECF05F0020E42
:1014B0000424E16E000E0520E26EA2C0E6FFA3C088
:1014C000E6FF010E0424E16E000E0520E26EA4C0CA
:1014D000E6FF04C0E9FF05C0EAFFEECF00F004C05C
:1014E000E1FF05C0E2FF400E0014E66E04C0E9FF14
:1014F00005C0EAFFEECF00F004C0E1FF05C0E2FF47
:10150000880E0010E66EA151000A1BE0A0C000F09A
:10151000000E016E003600900136380E0024026E77
:10152000000E0120036E02C0E9FF03C0EAFF040EB3
:10153000EE18006E02C0E1FF03C0E2FF00C0E6FF4C
:101540001AD0A0C000F0000E016E003600900136E7
:10155000420E0024026E000E0120036E02C0E9FF5D
:1015600003C0EAFF040EEE18006E02C0E1FF03C0E4
:10157000E2FF00C0E6FF04C000F005C001F0120069
:101580000B1E0A1E091E081E082AD8B4092AD8B440
:081590000A2AD8B40B2A12004C
:10159800000E0001A11902E1000EA01902E1016A82
:1015A80009D0A0C0E9FFA1C0EAFFEECF00F0016AB0
:0A15B80000BE012A01C000F012007D
:0A15C200D08EA28AA08AF28E1200D9
:1015CC00200E465C03E36DB201D002D0006A33D02A
:1015DC003CC0A0F03DC0A1F0D9DF00522BE19FC070
:1015EC00A0F0010EA16F9CC0A2F09DC0A3F09EC004
:1015FC00A4F030DF00C03CF001C03DF03E6A3F6A11
:10160C00406A416A3CC0A0F03DC0A1F0BFDF00526F
:10161C0008E03E503F104010411002E0006A0BD031
:10162C00F1D7010E3C24E96E000E3D20EA6EEECFA0
:08163C0000F001D0006A120069
:101644004650000A0AE16D6A696A01DFB8DF6DB6C7
:0C16540002D06D86FCD7010E466E12001D
:1016600004DD00016F6B706B3C6A3D6A6A6A686AF0
:10167000F0DE6D8C6E6A710EA06F0F0EA16FA26B03
:10168000010EA36F000EA46FD6DC6D9C9C6B080E40
:101690009C5D16E29CC000F0000E016E00360090CA
:1016A0000136003600900136000E0024E16E040E73
:1016B0000120E26EE66AE66AE66AE66A9C2BE7D7F4
:1016C000160E706E68A603D0F70E6816FBD7766B01
:1016D0007B6B7C6B7D6B6D98080E386E040E396EDB
:0616E000716B466A120066
:1016E600220E0C6E086A096A0A6A0B6A0C06D8B4DE
:1016F6001FD0D8900B320A32093208320332023236
:1017060001320032D8A0F2D70C06D8B409D0045062
:1017160008260550092206500A2207500B22EAD74E
:10172600045008260550092206500A2207500B22AB
:0217360012009F
:101738000450000A12E10550000A0FE10650000AA1
:101748000CE10750000A09E1FF0E006EFF0E016E62
:10175800FF0E026E7F0E036E97D00C6A07BE0C2A2E
:101768000D6A0B6A0A6A096A086A035002100110B6
:101778000010D8B484D0035007180E6E0EBE0D1E8C
:1017880007AE0BD0041E051E061E071E042AD8B479
:10179800052AD8B4062AD8B4072A03AE0BD0001EEF
:1017A800011E021E031E002AD8B4012AD8B4022A38
:1017B800D8B4032A035007100E6E0EBE1CD019DDD4
:1017C8000CBE36D00DAE5BD0001E011E021E031EDD
:1017D800002AD8B4012AD8B4022AD8B4032A081E89
:1017E800091E0A1E0B1E082AD8B4092AD8B40A2AC8
:1017F800D8B40B2A44D007AE15D003BE0DD0035081
:101808000B6E02500A6E0150096E0050086E036A92
:10181800026A016A006AD6D7036A026A016A006A24
:10182800002A000C031E021E011E001E0C8EC7D7C4
:10183800082AD8B4092AD8B40A2AD8B40B2A0450DA
:10184800085CD8A4BFD70550095CD8A4BBD70650FC
:101858000A5CD8A4B7D707500B5CD8A4B3D70B6AD7
:101868000A6A096A086A002AD8B4012AD8B4022A7E
:10187800D8B4032A03AEA6D70E6A0E88FF0C0E6AE8
:0A1888000CA001D079DE000F120061
:101892004FEC07F000C09CF07D0E0001A06F1F0E00
:1018A200A16F000EA26F4EEC08F000C09DF09C519B
:1018B200005C03E29CC000F002D09DC000F0120068
:1018C200800E006EBB0E016E000E026E036E1200E1
:1018D2006984EF0E68166D82750E0001A96F000E05
:1018E200AA6FAB6BAC6BAD6BAE6BA6EC02F01200E9
:1018F20070A019D05EC0E9FF5FC0EAFFEECF01F031
:101902000150800A0FE138C0E9FF39C0EAFFEECF8B
:1019120001F00150840A06E15EC0E1FF5FC0E2FF10
:0C1922008C0EE66E7090DF0E681612004E
:10192E00FD0E00016315016E026AFF0E0216000E17
:10193E00021802E1000E01186DE17E0E6315016EB4
:10194E0001C003F00332039E03C000F0000E016ECF
:10195E00003600900136003600900136000E00244D
:10196E00026E040E0120036E02C05EF003C05FF033
:10197E0002C061F003C062F0040E6119006E00C077
:10198E0061F002C0E9FF03C0EAFFEECF00F000C035
:10199E0001F03C0E01160132019E0132019E0150F2
:1019AE000D0A35E1020E5E24E96E000E5F20EA6E2E
:1019BE00EECF01F0EECF02F00250040A02E1280E43
:1019CE00011822E1020E5E24E16E000E5F20E26E2F
:1019DE00200EE66E040EE66EA76B080EA75D14E2EF
:1019EE00200EE16E040EE26EA751E126D8B0E22A77
:1019FE00280EE96E040EEA6EA751E926D8B0EA2A3F
:101A0E00EECFE6FFA72BE9D72EEC07F002D0AEEC17
:101A1E0007F00ED0FD0E6315016E026AFF0E021660
:101A2E00000E021802E1040E011802E1D2EC07F0DA
:021A3E00120094
:101A400035EC08F000016F6B706B3C6A3D6A6A6AA6
:101A5000686AFFDC6D8C6E6A710EA96F0F0EAA6F3B
:101A6000AB6B010EAC6F000EAD6F8CEC02F06D9C99
:101A7000A76B080EA75D16E2A7C000F0000E016E6E
:101A8000003600900136003600900136000E00242A
:101A9000E16E040E0120E26EE66AE66AE66AE66A34
:101AA000A72BE7D7160E706E68A603D0F70E681640
:101AB000FBD7766B7B6B7C6B7D6B6D98080E386EFD
:0A1AC000040E396E716B466A1200C5
:041ACA00A19A1200CB
:101ACE00740E0001A96F000EAA6FAB6BAC6BAD6B01
:101ADE00AE6BA6EC02F06D92699468A403D0FB0E77
:061AEE006816FBD7120090
:101AF4000900F5CFE6FF0006FBE10106F9E112005B
:101B040089C048F08AC049F08BC000F0010E026E13
:101B1400005004E002360290FF0FFBD702C04AF0E7
:101B2400021C576E8CC001F0010E006E015004E0DF
:101B340000360090FF0FFBD700C05AF0001E00C013
:101B44005BF0120E00018925E96E000E8A21EA6E0F
:101B54000250EF120050EF16586A9153D8A4581E41
:101B6400120EE95E5850000A03E05B50EF1602D0F3
:101B74005A50EF12A4DEE80E046E030E056E000E3A
:101B8400066E076EAEDD00C092F001C093F002C095
:101B940094F003C095F08DC000F08EC001F08FC0AA
:101BA40002F090C003F0003600900136023603368E
:101BB400003600900136023603360A0E046E000E1B
:101BC400056E066E076E8DDD00C096F001C097F0BD
:101BD40002C098F003C099F000C004F001C005F001
:101BE40002C006F003C007F092C000F093C001F0F9
:101BF40094C002F095C003F09DDD00C09AF001C0CE
:101C04009BF001C004F0056A0450051003E0020EC5
:101C1400006E50D09AC059F096C004F097C005F0F9
:101C240098C006F099C007F092C000F093C001F08C
:101C340094C002F095C003F07DDD08C000F009C037
:101C440001F00AC002F00BC003F000C092F001C022
:101C540093F002C094F003C095F096C005F097C0CD
:101C640006F098C007F099C008F00832073206322F
:101C74000532089E08BC088E800E0818046E800E7B
:101C84000318045C08E10250075C05E10150065C9E
:101C940002E10050055CD8A0592A59C001F0013274
:101CA400019E01C047F0070E015C03E2010E006EC5
:061CB40001D0006A1200DD
:101CBA000F0EC16E926A936A946A896A8A6A8B6AFB
:021CCA00120006
:101CCC00AECF01F0ABA202D0AB98AB8801C000F054
:021CDC001200F4
:101CDE00FF0E306EFF0E316EFF0E326EFF0E336E44
:101CEE00CC0E346E1C0E356E000E366E000E376E38
:101CFE00920E286E1E0E296E000E2A6E000E2B6E90
:101D0E00FF0E2C6EFF0E2D6E000E2E6E000E2F6E21
:101D1E00AC8A900EAB6E948E949C9EAA03D0AECFDE
:061D2E0000F0FBD71200DB
:101D340089C09CF08AC09DF08BC09EF0010E00010A
:061D44009F6F42DC12005B
:101D4A004650010A07E16DBA05D0686A6980698858
:101D5A00020E466E68A405D069A403D0FB0E68166D
:101D6A00B1DE6DA202D0ACDE77D068A018D069A02F
:101D7A0016D061DE040E466E200E0401026F040EB8
:101D8A00036F080E016F000E0015006E00C000F40C
:101D9A008C0E0011006E00C000F4FE0E681668A8D2
:101DAA0005D069A803D090DDEF0E681668AC11D093
:101DBA0069AC0FD0730E0001A96F000EAA6FAB6B4E
:101DCA00AC6B010EAD6F000EAE6FA6EC02F0BF0E4B
:101DDA00681668AA03D069AA01D086DD68A210D065
:101DEA0069A20ED0FF0E0001A96F3F0EAA6FAB6B5E
:101DFA00AC6B010EAD6F000EAE6FA6EC02F06A6A14
:101E0A00040E465C02E25CDE27D069A624D00001FB
:101E1A00A66B040EA65D1FE268A619D06CCF63F00C
:101E2A00F70E6816780E6315016E0150000A02E17A
:101E3A0079DD0CD0720EA96F000EAA6F630EAB6F1C
:101E4A00000EAC6FAD6BAE6BA6EC02F001D003D006
:0A1E5A000001A62BDED734DE1200D3
:101E640016DD00C06DF0010E6E6F89C069F08AC086
:101E74006AF08BC06BF08CC06CF030EC0BF0010E90
:0E1E8400016E0150010A02E122EC0BF0120087
:0A1E9200000E9EBA010E006E120051
:101E9C000EDF800E0001896F0F0E8A6F040E8B6FA0
:101EAC00030E8C6F800E8D6F250E8E6F000E8F6F54
:101EBC00906F916B21DE00C088F0B886040EB06E76
:101ECC00E10EAF6EAC8405DF000E0001896F050ECC
:101EDC008A6F400E8B6F050E8C6FBEDF0001826B1C
:101EEC00D2DF0050010A03E1EBDE00C082F082C0B9
:101EFC0042F5400E0001896F050E8A6F080E8B6F3C
:101F0C0013DF005201E1F5D70501426B400E0001D1
:101F1C00896F050E8A6F080E8B6F06DF005201E188
:101F2C00F5D70001836B846B856B866B876BD6D77B
:021F3C00FFD7CD
:101F3E0005010906A101050719E029E7150025018C
:101F4E007501950881029501750881039505750146
:101F5E00050819012905910295017503910395064E
:0F1F6E007508150025650507190029658100C054
:101F7D00090229000101008032090400000203005A
:101F8D000000092101010001223F000705810340E6
:091F9D00000107050103400001E9
:101FA600200355005300420020004D0061006E00E2
:101FB6006900700075006C00610074006F007200AB
:101FC60016035400550020004700610062007200AD
:061FD6006F0076006F00B1
:101FDC001201000200000008064406000100010284
:021FEC000001F2
:041FEE0004030904DB
:020000040030CA
:0E000000220E3E1EFF0181FF0FC00FE00F40D9
:00000001FF
